:100000000C94A7000C94BC000C94BC000C94BC0095
:100010000C94BC000C94BC000C94BC000C94BC0070
:100020000C94BC000C94BC000C94BC000C94BC0060
:100030000C94BC000C94BC000C94BC000C94BC0050
:100040000C94BC000C94BC000C94BC000C94BC0040
:100050000C94BC0000407A10F35A00A0724E1809AC
:100060000010A5D4E80000E87648170000E40B541F
:10007000020000CA9A3B000000E1F50500008096EE
:100080009800000040420F000000A0860100000020
:10009000102700000000E8030000000064000000DA
:1000A00000000A00000000000100000000002C76A3
:1000B000D888DC674F0823DFC1DFAE59E1B1B796BE
:1000C000E5E3E453C63AE651997696E8E6C284261B
:1000D000EB898C9B62ED407C6FFCEFBC9C9F40F2F7
:1000E000BAA56FA5F490055A2AF75C936B6CF96773
:1000F0006DC11BFCE0E40D47FEF520E6B500D0ED38
:10010000902E0300943577050080841E080000209F
:100110004E0A000000C80C333333330F986E12833D
:100120001141EF8D2114893BE65516CFFEE6DB1811
:10013000D1844B381BF77C1D901DA4BBE4242032D6
:1001400084725E228100C9F124ECA1E53D271124CF
:100150001FBECFE5D8E0DEBFCDBF10E0A0E6B0E027
:10016000E4EEFFE002C005900D92A63DB107D9F77D
:100170000E945C010C94F0070C94000080E487B9A5
:1001800083E086B9379A369A3699FECF84B195B115
:10019000089597B18F71907E892B87B9369A3699D9
:1001A000FECF24B135B1C9010895BF92CF92DF923D
:1001B000EF92FF920F931F93D82EB62ECC24EE24ED
:1001C000FF2487010BC08D2D0E94C900AC0160E0A7
:1001D00070E0E40EF51E061F171FC394CB1498F3AE
:1001E0002B2D30E040E050E0C801B7010E94EB0445
:1001F000C9011F910F91FF90EF90DF90CF90BF90BA
:1002000008951F9311E080E00E94C90022E0803031
:10021000920710F015BB01C015BA87EA91E6019765
:10022000F1F700C00000EFCFAF92BF92CF92DF9204
:10023000EF92FF920F931F93AA24A39443E0B42E4E
:1002400037E0C32E2FE0D22E9FE1E92E8FE3F82E68
:100250000FE71FEF80E00E94C900A5BA8038910522
:10026000F8F0B5BA8F3F9105D9F0D0F0C5BA21E0CA
:1002700080389207A8F0D5BA22E08030920780F04B
:10028000E5BA22E08038920758F0F5BA23E08030D2
:10029000920730F005BB23E08038920708F015BBC9
:1002A00060E00E941D030E94F30287EA91E6019735
:1002B000F1F700C00000CECF80E895E20E945B031A
:1002C0000E94BE008FEF84BB0E941401FDCFEF920D
:1002D000FF920F931F93CF93DF930DE813E080E617
:1002E00090E0F801099583EAE82E83E0F82E8AB3BE
:1002F00090E062E070E0F7010995C6E6D0E0CE013B
:10030000F801099587B390E062E070E0F701099584
:10031000CE01F801099584B390E062E070E0F70146
:100320000995CE01F801099581B390E062E070E093
:10033000F701099588E690E0F8010995DF91CF91E2
:100340001F910F91FF90EF900895CF93DF93CDE829
:10035000D3E08BE690E0FE0109958AB390E062E07D
:1003600070E00E94A30388E690E0FE010995DF910A
:10037000CF910895CF93DF93CDE8D3E082E790E06B
:10038000FE01099587B390E062E070E00E94A3034C
:1003900088E690E0FE010995DF91CF910895CF9313
:1003A000DF93CDE8D3E089E790E0FE01099584B3BF
:1003B00090E062E070E00E94A30388E690E0FE0116
:1003C0000995DF91CF910895CF93DF93CDE8D3E0E6
:1003D00080E890E0FE01099581B390E062E070E072
:1003E0000E94A30388E690E0FE010995DF91CF917A
:1003F0000895EF92FF920F931F93CF93DF930DE831
:1004000013E087E890E0F801099593EAE92E93E07C
:10041000F92E89B390E062E070E0F7010995C6E635
:10042000D0E0CE01F801099586B390E062E070E07B
:10043000F7010995CE01F801099583B390E062E0D8
:1004400070E0F7010995CE01F801099580B390E0BD
:1004500062E070E0F701099588E690E0F8010995FF
:10046000DF91CF911F910F91FF90EF900895CF935F
:10047000DF93CDE8D3E08DE890E0FE01099589B3E4
:1004800090E062E070E00E94A30388E690E0FE0145
:100490000995DF91CF910895CF93DF93CDE8D3E015
:1004A00084E990E0FE01099586B390E062E070E097
:1004B0000E94A30388E690E0FE010995DF91CF91A9
:1004C0000895CF93DF93CDE8D3E08BE990E0FE0170
:1004D000099583B390E062E070E00E94A30388E690
:1004E00090E0FE010995DF91CF910895CF93DF93BE
:1004F000CDE8D3E082EA90E0FE01099580B390E078
:1005000062E070E00E94A30388E690E0FE01099596
:10051000DF91CF910895EF92FF920F931F93CF93A6
:10052000DF930DE813E089EA90E0F801099523EAEA
:10053000E22E23E0F22E8BB390E062E070E0F70150
:100540000995C6E6D0E0CE01F801099588B390E0A0
:1005500062E070E0F7010995CE01F801099585B3D5
:1005600090E062E070E0F7010995CE01F80109958D
:1005700082B390E062E070E0F701099588E690E0D0
:10058000F8010995DF91CF911F910F91FF90EF90A6
:100590000895CF93DF93CDE8D3E080EB90E0FE01A8
:1005A00009958BB390E062E070E00E94A30388E6B7
:1005B00090E0FE010995DF91CF910895CF93DF93ED
:1005C000CDE8D3E088EB90E0FE01099588B390E098
:1005D00062E070E00E94A30388E690E0FE010995C6
:1005E000DF91CF910895CF93DF93CDE8D3E080ECF6
:1005F00090E0FE01099585B390E062E070E00E9412
:10060000A30388E690E0FE010995DF91CF9108955C
:10061000CF93DF93CDE8D3E088EC90E0FE0109951D
:1006200082B390E062E070E00E94A30388E690E06D
:10063000FE010995DF91CF910895BF92CF92DF928D
:10064000EF92FF920F931F93CF93DF93B82EC92E93
:10065000D62E0DE813E080ED90E0F801099533EA1D
:10066000E32E33E0F32E8B2D90E062E070E0F70193
:100670000995C6E6D0E0CE01F80109958C2D90E0F1
:1006800062E070E0F7010995CE01F80109958D2D22
:1006900090E062E070E0F701099588E690E0F801EB
:1006A0000995DF91CF911F910F91FF90EF90DF900F
:1006B000CF90BF9008959C0140E050E064E0220F8D
:1006C000331F441F551F6A95D1F760E074E284EF31
:1006D00090E00E94EB042150304030BD29B980B534
:1006E000866880BD88E18AB908958BB1881F882704
:1006F000881F08955F9BFECF8CB10895CF93DF9341
:10070000EC010E947A0389938823D9F7DF91CF9176
:1007100008955D9BFECF8CB90895EF92FF92CF9321
:10072000DF93E82EE7017E01F92EE70102C00E9467
:10073000890389918823D9F70E948903DF91CF919A
:10074000FF90EF900895EF92FF920F931F93DF9326
:10075000CF93CDB7DEB761970FB6F894DEBF0FBE6B
:10076000CDBF7B018E010F5F1F4FB80140E150E00C
:100770000E945005F8018E2F801B91919923D9F783
:10078000082F04C080E30E9489030F5F802F90E050
:100790008E159F05BCF3CE0101960E948D036196D4
:1007A0000FB6F894DEBF0FBECDBFCF91DF911F9182
:1007B0000F91FF90EF900895EF92FF920F931F9388
:1007C000DF93CF93CDB7DEB760970FB6F894DEBF57
:1007D0000FBECDBF7B018E010F5F1F4FB8014AE0F6
:1007E00050E00E942F05F8018E2F801B91919923D4
:1007F000D9F7082F04C080E20E9489030F5F802F81
:1008000090E08E159F05BCF3CE0101960E948D03EA
:1008100060960FB6F894DEBF0FBECDBFCF91DF91CB
:100820001F910F91FF90EF900895EF92FF920F9319
:100830001F93DF93CF93CDB7DEB760970FB6F894D1
:10084000DEBF0FBECDBF7E010894E11CF11C870105
:100850000E940D05C7010E948D0360960FB6F894A3
:10086000DEBF0FBECDBFCF91DF911F910F91FF90E3
:10087000EF900895EF92FF920F931F93DF93CF9322
:10088000CDB7DEB760970FB6F894DEBF0FBECDBF11
:100890007B018E010F5F1F4FB8014AE050E00E94BC
:1008A0005005F8018E2F801B91919923D9F7082FBD
:1008B00004C080E20E9489030F5F802F90E08E15B4
:1008C0009F05BCF3CE0101960E948D0360960FB682
:1008D000F894DEBF0FBECDBFCF91DF911F910F9176
:1008E000FF90EF900895EF92FF920F931F93DF9385
:1008F000CF93CDB7DEB760970FB6F894DEBF0FBECB
:10090000CDBF7B018E010F5F1F4FB8014AE050E061
:100910000E945005F8018E2F801B91919923D9F7E1
:10092000082F04C080E30E9489030F5F802F90E0AE
:100930008E159F05BCF3CE0101960E948D03609633
:100940000FB6F894DEBF0FBECDBFCF91DF911F91E0
:100950000F91FF90EF900895EF92FF920F931F93E6
:10096000DF93CF93CDB7DEB761970FB6F894DEBFB4
:100970000FBECDBF7B018E010F5F1F4FB80142E05C
:1009800050E00E945005F8018E2F801B9191992311
:10099000D9F7082F04C080E30E9489030F5F802FDE
:1009A00090E08E159F05BCF3CE0101960E948D0349
:1009B00061960FB6F894DEBF0FBECDBFCF91DF9129
:1009C0001F910F91FF90EF90089590E068E070E024
:1009D0000E94AC040895A1E21A2EAA1BBB1BFD01C4
:1009E0000DC0AA1FBB1FEE1FFF1FA217B307E4070E
:1009F000F50720F0A21BB30BE40BF50B661F771F66
:100A0000881F991F1A9469F7609570958095909545
:100A10009B01AC01BD01CF010895EF92FF920F93AE
:100A20001F93322FF02E47FF02C0A4E101C0A4E0C3
:100A3000E42FFF27E7FDF095F7FF03C0F095E19560
:100A4000FF4F4F2D512F2E2F032FEA2E0E946605A8
:100A50008F2D912F1F910F91FF90EF900895FB0123
:100A60009F01E8944230C4F04532B4F44A3029F48E
:100A700097FB1EF4909581959F4F642F77270E94D6
:100A8000A507805D8A330CF0895D8193CB010097C7
:100A9000A1F716F45DE251931082C9010C949507F9
:100AA000FB019F01423074F0453264F4642F7727D4
:100AB0000E94A507805D8A330CF0895D8193CB018C
:100AC0000097A1F71082C9010C949507A9E0B0E046
:100AD000ECE6F5E00C94C1076A01F22E102F0C33FE
:100AE00018F4B02EB39402C0ECE3BE2EAE014F5FFB
:100AF0005F4F27E00B2D0E94BD06298130E0A90140
:100B0000497050704130510531F0E1FC06C0E0FE03
:100B100006C0E0E205C0EDE203C0EBE201C0E0E0A8
:100B200023FF37C0EE2311F084E001C083E08F156E
:100B300018F4F81A8F2D01C080E0E4FC0BC0982F48
:100B4000D60120E202C02D9391509923E1F7C80EFF
:100B5000D11C80E0EE2319F0D601ED936D01F60172
:100B60003196E2FE05C09EE4D6019C9321E404C0C8
:100B70009EE6D6019C9321E611962C9391833296A2
:100B8000982FDF0120E202C02D9391509923E1F7C5
:100B90003DC022FF41C0EE2311F084E001C083E09C
:100BA0008F1518F4F81A8F2D01C080E0E4FC0BC0FB
:100BB000982FD60120E202C02D9391509923E1F79E
:100BC000C80ED11C80E0EE2319F0D601ED936D0123
:100BD000F6013196E2FE09C099E4D6019C939EE4A9
:100BE00011969C93119796E407C099E6D6019C93C1
:100BF0009EE611969C9396E691833296982FDF019C
:100C000020E202C02D9391509923E1F7E80FF11DE6
:100C100010822EEF3FEFACC041E050E0EE2311F424
:100C200040E050E01816190624F4BC016F5F7F4FB6
:100C300002C061E070E0640F751F112329F0412F9D
:100C400050E04F5F5F4F02C040E050E0460F571F3B
:100C50006F2D70E0461757071CF40F2D041B01C0C1
:100C600000E0FF24A70140715070E4FC0DC0E3FCDC
:100C70000BC0602FD60170E202C07D9361506623E5
:100C8000E1F7C00ED11C00E0EE2319F0D601ED9380
:100C90006D014115510559F4402FF60150E302C092
:100CA000519341504423E1F7C00ED11C00E0B80E2F
:100CB000FA80A9014071507024FF04C0BF2DB133E8
:100CC00009F4BA941B142CF4AB2DA93018F0A8E049
:100CD00001C0A1E09C0197FF02C020E030E0BC0110
:100CE0006F5F7F4F621B730BFE013196E60FF71F9C
:100CF0006EE2E62EBC016A1B7109A12FB0E0AA24A6
:100D0000BB24AA1ABB0A1FEF2F3F310719F4D601E3
:100D1000ED926D01821793072CF06217730714F49C
:100D2000108101C010E32150304031962A153B0557
:100D300024F0D6011D936D01E6CF2817390749F439
:100D4000BF2DB63328F4B53321F44115510509F40C
:100D500011E3F6011193802FDF0190E202C09D9311
:100D600081508823E1F7E00FF11D108220E030E090
:100D7000C9012996EAE00C94DD07283008F027E045
:100D80003327DA01990F311D87FD916000966105C7
:100D9000710539F432602E5F3D9330E32A95E1F717
:100DA00008959F3F30F080387105610509F03C5F80
:100DB0003C5F3D93913008F08068911DDF93CF93A5
:100DC0001F930F93FF92EF92192F987F9695E92F1B
:100DD00096959695E90FFF27E255FF4F9927332700
:100DE000EE24FF24A701E70105900894079428F456
:100DF000360FE71EF81E491F511D660F771F881F0B
:100E0000991F0694A1F70590079428F4E70EF81EA1
:100E1000491F561FC11D770F881F991F661F069413
:100E2000A1F70590079428F4F80E491F561FC71F15
:100E3000D11D880F991F661F771F0694A1F7059093
:100E4000079420F4490F561FC71FD81F990F661F1C
:100E5000771F881F0694A9F784911095177041F0A9
:100E6000D695C79557954795F794E7941A95C1F786
:100E7000E4E5F0E0689415901591359165919591B0
:100E800005907FE27395E118F10A430B560BC90BED
:100E9000D009C0F7E10CF11E431F561FC91FD01D1A
:100EA0007EF4703311F48A95E6CFE894015030F067
:100EB000080F0AF40027021708F4202F2395022FA9
:100EC0007A3328F079E37D932A95E9F710C07D9372
:100ED0002A9589F6069497956795379517951794EF
:100EE000E118F10A430B560BC90BD00998F0239572
:100EF0007E9173957A3308F070E37C932013B8F7F2
:100F00007E9170617D9330F0839571E37D9370E302
:100F10002A95E1F71124EF90FF900F911F91CF9147
:100F2000DF91992787FD90950895DC01FC01672FDB
:100F300071917723E1F7329704C07C916D937083B0
:100F40006291AE17BF07C8F30895AA1BBB1B51E1FE
:100F500007C0AA1FBB1FA617B70710F0A61BB70B29
:100F6000881F991F5A95A9F780959095BC01CD01CE
:100F700008952F923F924F925F926F927F928F923D
:100F80009F92AF92BF92CF92DF92EF92FF920F9318
:100F90001F93CF93DF93CDB7DEB7CA1BDB0B0FB622
:100FA000F894DEBF0FBECDBF09942A8839884888DF
:100FB0005F846E847D848C849B84AA84B984C88475
:100FC000DF80EE80FD800C811B81AA81B981CE0F6C
:100FD000D11D0FB6F894DEBF0FBECDBFED01089551
:040FE000F894FFCFB3
:100FE4005B6464723A003A005D0A005B6464726197
:100FF4003A005B646472623A005B646472633A0050
:101004005B646472643A005B70696E3A005B706999
:101014006E613A005B70696E623A005B70696E6380
:101024003A005B70696E643A005B706F72743A00E8
:101034005B706F7274613A005B706F7274623A0035
:101044005B706F7274633A005B706F7274643A0021
:061054005B6164633A00D9
:00000001FF
